{
  "_format": "hh-sol-artifact-1",
  "contractName": "StringRegistry",
  "sourceName": "contracts/StringRegistry.sol",
  "abi": [
    {
      "inputs": [
        {
          "internalType": "string",
          "name": "newString",
          "type": "string"
        }
      ],
      "name": "addString",
      "outputs": [],
      "stateMutability": "nonpayable",
      "type": "function"
    },
    {
      "inputs": [],
      "name": "getFileHashes",
      "outputs": [
        {
          "internalType": "bytes32[]",
          "name": "",
          "type": "bytes32[]"
        }
      ],
      "stateMutability": "view",
      "type": "function"
    },
    {
      "inputs": [],
      "name": "getStrings",
      "outputs": [
        {
          "internalType": "string[]",
          "name": "",
          "type": "string[]"
        }
      ],
      "stateMutability": "view",
      "type": "function"
    },
    {
      "inputs": [
        {
          "internalType": "string",
          "name": "filePath",
          "type": "string"
        }
      ],
      "name": "hashFile",
      "outputs": [],
      "stateMutability": "nonpayable",
      "type": "function"
    },
    {
      "inputs": [
        {
          "internalType": "string",
          "name": "filePath",
          "type": "string"
        }
      ],
      "name": "isHashPresent",
      "outputs": [
        {
          "internalType": "bool",
          "name": "",
          "type": "bool"
        }
      ],
      "stateMutability": "view",
      "type": "function"
    },
    {
      "inputs": [
        {
          "internalType": "uint256",
          "name": "index",
          "type": "uint256"
        }
      ],
      "name": "removeString",
      "outputs": [],
      "stateMutability": "nonpayable",
      "type": "function"
    }
  ],
  "bytecode": "0x6080604052348015600f57600080fd5b506110898061001f6000396000f3fe608060405234801561001057600080fd5b50600436106100625760003560e01c80638d9a5ad0146100675780639874f5d7146100855780639fa8a871146100a1578063b5fedfa0146100d1578063bd62dbd9146100ed578063ede7633e14610109575b600080fd5b61006f610127565b60405161007c91906106af565b60405180910390f35b61009f600480360381019061009a919061081a565b610200565b005b6100bb60048036038101906100b6919061081a565b610238565b6040516100c8919061087e565b60405180910390f35b6100eb60048036038101906100e6919061081a565b610305565b005b610107600480360381019061010291906108cf565b61039f565b005b6101116104a8565b60405161011e91906109c4565b60405180910390f35b60606000805480602002602001604051908101604052809291908181526020016000905b828210156101f757838290600052602060002001805461016a90610a15565b80601f016020809104026020016040519081016040528092919081815260200182805461019690610a15565b80156101e35780601f106101b8576101008083540402835291602001916101e3565b820191906000526020600020905b8154815290600101906020018083116101c657829003601f168201915b50505050508152602001906001019061014b565b50505050905090565b6000819080600181540180825580915050600190039060005260206000200160009091909190915090816102349190610bf2565b5050565b60008060028360405160200161024e9190610d00565b60405160208183030381529060405260405161026a9190610d5e565b602060405180830381855afa158015610287573d6000803e3d6000fd5b5050506040513d601f19601f820116820180604052508101906102aa9190610da1565b905060005b6001805490508110156102f95781600182815481106102d1576102d0610dce565b5b9060005260206000200154036102ec57600192505050610300565b80806001019150506102af565b5060009150505b919050565b600160028260405160200161031a9190610d00565b6040516020818303038152906040526040516103369190610d5e565b602060405180830381855afa158015610353573d6000803e3d6000fd5b5050506040513d601f19601f820116820180604052508101906103769190610da1565b908060018154018082558091505060019003906000526020600020016000909190919091505550565b600080549050811080156103b4575060008110155b6103f3576040517f08c379a00000000000000000000000000000000000000000000000000000000081526004016103ea90610e5a565b60405180910390fd5b60008190505b600160008054905061040b9190610ea9565b8110156104745760006001826104219190610edd565b8154811061043257610431610dce565b5b90600052602060002001600082815481106104505761044f610dce565b5b9060005260206000200190816104669190610f3c565b5080806001019150506103f9565b50600080548061048757610486611024565b5b6001900381819060005260206000200160006104a39190610500565b905550565b606060018054806020026020016040519081016040528092919081815260200182805480156104f657602002820191906000526020600020905b8154815260200190600101908083116104e2575b5050505050905090565b50805461050c90610a15565b6000825580601f1061051e575061053d565b601f01602090049060005260206000209081019061053c9190610540565b5b50565b5b80821115610559576000816000905550600101610541565b5090565b600081519050919050565b600082825260208201905092915050565b6000819050602082019050919050565b600081519050919050565b600082825260208201905092915050565b60005b838110156105c35780820151818401526020810190506105a8565b60008484015250505050565b6000601f19601f8301169050919050565b60006105eb82610589565b6105f58185610594565b93506106058185602086016105a5565b61060e816105cf565b840191505092915050565b600061062583836105e0565b905092915050565b6000602082019050919050565b60006106458261055d565b61064f8185610568565b93508360208202850161066185610579565b8060005b8581101561069d578484038952815161067e8582610619565b94506106898361062d565b925060208a01995050600181019050610665565b50829750879550505050505092915050565b600060208201905081810360008301526106c9818461063a565b905092915050565b6000604051905090565b600080fd5b600080fd5b600080fd5b600080fd5b7f4e487b7100000000000000000000000000000000000000000000000000000000600052604160045260246000fd5b610727826105cf565b810181811067ffffffffffffffff82111715610746576107456106ef565b5b80604052505050565b60006107596106d1565b9050610765828261071e565b919050565b600067ffffffffffffffff821115610785576107846106ef565b5b61078e826105cf565b9050602081019050919050565b82818337600083830152505050565b60006107bd6107b88461076a565b61074f565b9050828152602081018484840111156107d9576107d86106ea565b5b6107e484828561079b565b509392505050565b600082601f830112610801576108006106e5565b5b81356108118482602086016107aa565b91505092915050565b6000602082840312156108305761082f6106db565b5b600082013567ffffffffffffffff81111561084e5761084d6106e0565b5b61085a848285016107ec565b91505092915050565b60008115159050919050565b61087881610863565b82525050565b6000602082019050610893600083018461086f565b92915050565b6000819050919050565b6108ac81610899565b81146108b757600080fd5b50565b6000813590506108c9816108a3565b92915050565b6000602082840312156108e5576108e46106db565b5b60006108f3848285016108ba565b91505092915050565b600081519050919050565b600082825260208201905092915050565b6000819050602082019050919050565b6000819050919050565b61093b81610928565b82525050565b600061094d8383610932565b60208301905092915050565b6000602082019050919050565b6000610971826108fc565b61097b8185610907565b935061098683610918565b8060005b838110156109b757815161099e8882610941565b97506109a983610959565b92505060018101905061098a565b5085935050505092915050565b600060208201905081810360008301526109de8184610966565b905092915050565b7f4e487b7100000000000000000000000000000000000000000000000000000000600052602260045260246000fd5b60006002820490506001821680610a2d57607f821691505b602082108103610a4057610a3f6109e6565b5b50919050565b60008190508160005260206000209050919050565b60006020601f8301049050919050565b600082821b905092915050565b600060088302610aa87fffffffffffffffffffffffffffffffffffffffffffffffffffffffffffffffff82610a6b565b610ab28683610a6b565b95508019841693508086168417925050509392505050565b6000819050919050565b6000610aef610aea610ae584610899565b610aca565b610899565b9050919050565b6000819050919050565b610b0983610ad4565b610b1d610b1582610af6565b848454610a78565b825550505050565b600090565b610b32610b25565b610b3d818484610b00565b505050565b5b81811015610b6157610b56600082610b2a565b600181019050610b43565b5050565b601f821115610ba657610b7781610a46565b610b8084610a5b565b81016020851015610b8f578190505b610ba3610b9b85610a5b565b830182610b42565b50505b505050565b600082821c905092915050565b6000610bc960001984600802610bab565b1980831691505092915050565b6000610be28383610bb8565b9150826002028217905092915050565b610bfb82610589565b67ffffffffffffffff811115610c1457610c136106ef565b5b610c1e8254610a15565b610c29828285610b65565b600060209050601f831160018114610c5c5760008415610c4a578287015190505b610c548582610bd6565b865550610cbc565b601f198416610c6a86610a46565b60005b82811015610c9257848901518255600182019150602085019450602081019050610c6d565b86831015610caf5784890151610cab601f891682610bb8565b8355505b6001600288020188555050505b505050505050565b600081905092915050565b6000610cda82610589565b610ce48185610cc4565b9350610cf48185602086016105a5565b80840191505092915050565b6000610d0c8284610ccf565b915081905092915050565b600081519050919050565b600081905092915050565b6000610d3882610d17565b610d428185610d22565b9350610d528185602086016105a5565b80840191505092915050565b6000610d6a8284610d2d565b915081905092915050565b610d7e81610928565b8114610d8957600080fd5b50565b600081519050610d9b81610d75565b92915050565b600060208284031215610db757610db66106db565b5b6000610dc584828501610d8c565b91505092915050565b7f4e487b7100000000000000000000000000000000000000000000000000000000600052603260045260246000fd5b600082825260208201905092915050565b7f496e64657820686f7273206c696d697465730000000000000000000000000000600082015250565b6000610e44601283610dfd565b9150610e4f82610e0e565b602082019050919050565b60006020820190508181036000830152610e7381610e37565b9050919050565b7f4e487b7100000000000000000000000000000000000000000000000000000000600052601160045260246000fd5b6000610eb482610899565b9150610ebf83610899565b9250828203905081811115610ed757610ed6610e7a565b5b92915050565b6000610ee882610899565b9150610ef383610899565b9250828201905080821115610f0b57610f0a610e7a565b5b92915050565b600081549050610f2081610a15565b9050919050565b60008190508160005260206000209050919050565b818103610f4a575050611022565b610f5382610f11565b67ffffffffffffffff811115610f6c57610f6b6106ef565b5b610f768254610a15565b610f81828285610b65565b6000601f831160018114610fb05760008415610f9e578287015490505b610fa88582610bd6565b86555061101b565b601f198416610fbe87610f27565b9650610fc986610a46565b60005b82811015610ff157848901548255600182019150600185019450602081019050610fcc565b8683101561100e578489015461100a601f891682610bb8565b8355505b6001600288020188555050505b5050505050505b565b7f4e487b7100000000000000000000000000000000000000000000000000000000600052603160045260246000fdfea264697066735822122037e562c60ff39ed5121b09423718db16fa815c312aa276917fabda9bde2939ad64736f6c634300081c0033",
  "linkReferences": {},
  "deployedLinkReferences": {}
}