{
  "_format": "hh-sol-artifact-1",
  "contractName": "StringRegistry",
  "sourceName": "contracts/StringRegistry.sol",
  "abi": [
    {
      "inputs": [
        {
          "internalType": "string",
          "name": "newString",
          "type": "string"
        }
      ],
      "name": "addString",
      "outputs": [],
      "stateMutability": "nonpayable",
      "type": "function"
    },
    {
      "inputs": [],
      "name": "getStrings",
      "outputs": [
        {
          "internalType": "string[]",
          "name": "",
          "type": "string[]"
        }
      ],
      "stateMutability": "view",
      "type": "function"
    },
    {
      "inputs": [
        {
          "internalType": "string",
          "name": "filePath",
          "type": "string"
        }
      ],
      "name": "hashFile",
      "outputs": [],
      "stateMutability": "nonpayable",
      "type": "function"
    }
  ],
  "bytecode": "0x6080604052348015600f57600080fd5b5061097f8061001f6000396000f3fe608060405234801561001057600080fd5b50600436106100415760003560e01c80638d9a5ad0146100465780639874f5d714610064578063b5fedfa014610080575b600080fd5b61004e61009c565b60405161005b9190610399565b60405180910390f35b61007e60048036038101906100799190610504565b610175565b005b61009a60048036038101906100959190610504565b6101ad565b005b60606000805480602002602001604051908101604052809291908181526020016000905b8282101561016c5783829060005260206000200180546100df9061057c565b80601f016020809104026020016040519081016040528092919081815260200182805461010b9061057c565b80156101585780601f1061012d57610100808354040283529160200191610158565b820191906000526020600020905b81548152906001019060200180831161013b57829003601f168201915b5050505050815260200190600101906100c0565b50505050905090565b6000819080600181540180825580915050600190039060005260206000200160009091909190915090816101a99190610763565b5050565b60016002826040516020016101c29190610871565b6040516020818303038152906040526040516101de91906108cf565b602060405180830381855afa1580156101fb573d6000803e3d6000fd5b5050506040513d601f19601f8201168201806040525081019061021e919061091c565b908060018154018082558091505060019003906000526020600020016000909190919091505550565b600081519050919050565b600082825260208201905092915050565b6000819050602082019050919050565b600081519050919050565b600082825260208201905092915050565b60005b838110156102ad578082015181840152602081019050610292565b60008484015250505050565b6000601f19601f8301169050919050565b60006102d582610273565b6102df818561027e565b93506102ef81856020860161028f565b6102f8816102b9565b840191505092915050565b600061030f83836102ca565b905092915050565b6000602082019050919050565b600061032f82610247565b6103398185610252565b93508360208202850161034b85610263565b8060005b8581101561038757848403895281516103688582610303565b945061037383610317565b925060208a0199505060018101905061034f565b50829750879550505050505092915050565b600060208201905081810360008301526103b38184610324565b905092915050565b6000604051905090565b600080fd5b600080fd5b600080fd5b600080fd5b7f4e487b7100000000000000000000000000000000000000000000000000000000600052604160045260246000fd5b610411826102b9565b810181811067ffffffffffffffff821117156104305761042f6103d9565b5b80604052505050565b60006104436103bb565b905061044f8282610408565b919050565b600067ffffffffffffffff82111561046f5761046e6103d9565b5b610478826102b9565b9050602081019050919050565b82818337600083830152505050565b60006104a76104a284610454565b610439565b9050828152602081018484840111156104c3576104c26103d4565b5b6104ce848285610485565b509392505050565b600082601f8301126104eb576104ea6103cf565b5b81356104fb848260208601610494565b91505092915050565b60006020828403121561051a576105196103c5565b5b600082013567ffffffffffffffff811115610538576105376103ca565b5b610544848285016104d6565b91505092915050565b7f4e487b7100000000000000000000000000000000000000000000000000000000600052602260045260246000fd5b6000600282049050600182168061059457607f821691505b6020821081036105a7576105a661054d565b5b50919050565b60008190508160005260206000209050919050565b60006020601f8301049050919050565b600082821b905092915050565b60006008830261060f7fffffffffffffffffffffffffffffffffffffffffffffffffffffffffffffffff826105d2565b61061986836105d2565b95508019841693508086168417925050509392505050565b6000819050919050565b6000819050919050565b600061066061065b61065684610631565b61063b565b610631565b9050919050565b6000819050919050565b61067a83610645565b61068e61068682610667565b8484546105df565b825550505050565b600090565b6106a3610696565b6106ae818484610671565b505050565b5b818110156106d2576106c760008261069b565b6001810190506106b4565b5050565b601f821115610717576106e8816105ad565b6106f1846105c2565b81016020851015610700578190505b61071461070c856105c2565b8301826106b3565b50505b505050565b600082821c905092915050565b600061073a6000198460080261071c565b1980831691505092915050565b60006107538383610729565b9150826002028217905092915050565b61076c82610273565b67ffffffffffffffff811115610785576107846103d9565b5b61078f825461057c565b61079a8282856106d6565b600060209050601f8311600181146107cd57600084156107bb578287015190505b6107c58582610747565b86555061082d565b601f1984166107db866105ad565b60005b82811015610803578489015182556001820191506020850194506020810190506107de565b86831015610820578489015161081c601f891682610729565b8355505b6001600288020188555050505b505050505050565b600081905092915050565b600061084b82610273565b6108558185610835565b935061086581856020860161028f565b80840191505092915050565b600061087d8284610840565b915081905092915050565b600081519050919050565b600081905092915050565b60006108a982610888565b6108b38185610893565b93506108c381856020860161028f565b80840191505092915050565b60006108db828461089e565b915081905092915050565b6000819050919050565b6108f9816108e6565b811461090457600080fd5b50565b600081519050610916816108f0565b92915050565b600060208284031215610932576109316103c5565b5b600061094084828501610907565b9150509291505056fea26469706673582212207fa273fc5b21fe5ce25cb5a0ed923957b2a0bbeb84588387de44af39a9bf262264736f6c634300081c0033",
  "linkReferences": {},
  "deployedLinkReferences": {}
}